{
  "contractName": "Crowdsale",
  "abi": [
    {
      "constant": true,
      "inputs": [],
      "name": "rate",
      "outputs": [
        {
          "name": "",
          "type": "uint256"
        }
      ],
      "payable": false,
      "stateMutability": "view",
      "type": "function"
    },
    {
      "constant": true,
      "inputs": [],
      "name": "goal",
      "outputs": [
        {
          "name": "",
          "type": "uint256"
        }
      ],
      "payable": false,
      "stateMutability": "view",
      "type": "function"
    },
    {
      "constant": true,
      "inputs": [],
      "name": "weiRaised",
      "outputs": [
        {
          "name": "",
          "type": "uint256"
        }
      ],
      "payable": false,
      "stateMutability": "view",
      "type": "function"
    },
    {
      "constant": true,
      "inputs": [],
      "name": "tokenHolder",
      "outputs": [
        {
          "name": "",
          "type": "address"
        }
      ],
      "payable": false,
      "stateMutability": "view",
      "type": "function"
    },
    {
      "constant": true,
      "inputs": [],
      "name": "closingTime",
      "outputs": [
        {
          "name": "",
          "type": "uint256"
        }
      ],
      "payable": false,
      "stateMutability": "view",
      "type": "function"
    },
    {
      "constant": true,
      "inputs": [],
      "name": "wallet",
      "outputs": [
        {
          "name": "",
          "type": "address"
        }
      ],
      "payable": false,
      "stateMutability": "view",
      "type": "function"
    },
    {
      "constant": false,
      "inputs": [],
      "name": "renounceOwnership",
      "outputs": [],
      "payable": false,
      "stateMutability": "nonpayable",
      "type": "function"
    },
    {
      "constant": true,
      "inputs": [],
      "name": "isFinalized",
      "outputs": [
        {
          "name": "",
          "type": "bool"
        }
      ],
      "payable": false,
      "stateMutability": "view",
      "type": "function"
    },
    {
      "constant": true,
      "inputs": [],
      "name": "owner",
      "outputs": [
        {
          "name": "",
          "type": "address"
        }
      ],
      "payable": false,
      "stateMutability": "view",
      "type": "function"
    },
    {
      "constant": true,
      "inputs": [
        {
          "name": "",
          "type": "address"
        }
      ],
      "name": "whitelist",
      "outputs": [
        {
          "name": "",
          "type": "bool"
        }
      ],
      "payable": false,
      "stateMutability": "view",
      "type": "function"
    },
    {
      "constant": true,
      "inputs": [],
      "name": "tokenSoldExcludeBonus",
      "outputs": [
        {
          "name": "",
          "type": "uint256"
        }
      ],
      "payable": false,
      "stateMutability": "view",
      "type": "function"
    },
    {
      "constant": true,
      "inputs": [],
      "name": "openingTime",
      "outputs": [
        {
          "name": "",
          "type": "uint256"
        }
      ],
      "payable": false,
      "stateMutability": "view",
      "type": "function"
    },
    {
      "constant": true,
      "inputs": [],
      "name": "remainingTokens",
      "outputs": [
        {
          "name": "",
          "type": "uint256"
        }
      ],
      "payable": false,
      "stateMutability": "view",
      "type": "function"
    },
    {
      "constant": false,
      "inputs": [
        {
          "name": "_newOwner",
          "type": "address"
        }
      ],
      "name": "transferOwnership",
      "outputs": [],
      "payable": false,
      "stateMutability": "nonpayable",
      "type": "function"
    },
    {
      "constant": true,
      "inputs": [],
      "name": "vault",
      "outputs": [
        {
          "name": "",
          "type": "address"
        }
      ],
      "payable": false,
      "stateMutability": "view",
      "type": "function"
    },
    {
      "constant": true,
      "inputs": [],
      "name": "token",
      "outputs": [
        {
          "name": "",
          "type": "address"
        }
      ],
      "payable": false,
      "stateMutability": "view",
      "type": "function"
    },
    {
      "inputs": [
        {
          "name": "_rate",
          "type": "uint256"
        },
        {
          "name": "_wallet",
          "type": "address"
        },
        {
          "name": "_token",
          "type": "address"
        },
        {
          "name": "_openingTime",
          "type": "uint256"
        },
        {
          "name": "_closingTime",
          "type": "uint256"
        },
        {
          "name": "_tokenHolder",
          "type": "address"
        },
        {
          "name": "_goal",
          "type": "uint256"
        }
      ],
      "payable": false,
      "stateMutability": "nonpayable",
      "type": "constructor"
    },
    {
      "payable": true,
      "stateMutability": "payable",
      "type": "fallback"
    },
    {
      "anonymous": false,
      "inputs": [],
      "name": "Finalized",
      "type": "event"
    },
    {
      "anonymous": false,
      "inputs": [
        {
          "indexed": true,
          "name": "purchaser",
          "type": "address"
        },
        {
          "indexed": true,
          "name": "beneficiary",
          "type": "address"
        },
        {
          "indexed": false,
          "name": "value",
          "type": "uint256"
        },
        {
          "indexed": false,
          "name": "amount",
          "type": "uint256"
        }
      ],
      "name": "TokenPurchase",
      "type": "event"
    },
    {
      "anonymous": false,
      "inputs": [
        {
          "indexed": true,
          "name": "previousOwner",
          "type": "address"
        }
      ],
      "name": "OwnershipRenounced",
      "type": "event"
    },
    {
      "anonymous": false,
      "inputs": [
        {
          "indexed": true,
          "name": "previousOwner",
          "type": "address"
        },
        {
          "indexed": true,
          "name": "newOwner",
          "type": "address"
        }
      ],
      "name": "OwnershipTransferred",
      "type": "event"
    },
    {
      "constant": false,
      "inputs": [],
      "name": "finalize",
      "outputs": [],
      "payable": false,
      "stateMutability": "nonpayable",
      "type": "function"
    },
    {
      "constant": false,
      "inputs": [],
      "name": "claimRefund",
      "outputs": [],
      "payable": false,
      "stateMutability": "nonpayable",
      "type": "function"
    },
    {
      "constant": true,
      "inputs": [],
      "name": "goalReached",
      "outputs": [
        {
          "name": "",
          "type": "bool"
        }
      ],
      "payable": false,
      "stateMutability": "view",
      "type": "function"
    },
    {
      "constant": false,
      "inputs": [
        {
          "name": "_beneficiary",
          "type": "address"
        }
      ],
      "name": "buyTokens",
      "outputs": [],
      "payable": true,
      "stateMutability": "payable",
      "type": "function"
    },
    {
      "constant": false,
      "inputs": [
        {
          "name": "_beneficiary",
          "type": "address"
        }
      ],
      "name": "addToWhitelist",
      "outputs": [],
      "payable": false,
      "stateMutability": "nonpayable",
      "type": "function"
    },
    {
      "constant": false,
      "inputs": [
        {
          "name": "_beneficiaries",
          "type": "address[]"
        }
      ],
      "name": "addManyToWhitelist",
      "outputs": [],
      "payable": false,
      "stateMutability": "nonpayable",
      "type": "function"
    },
    {
      "constant": false,
      "inputs": [
        {
          "name": "_beneficiary",
          "type": "address"
        }
      ],
      "name": "removeFromWhitelist",
      "outputs": [],
      "payable": false,
      "stateMutability": "nonpayable",
      "type": "function"
    },
    {
      "constant": true,
      "inputs": [],
      "name": "hasClosed",
      "outputs": [
        {
          "name": "",
          "type": "bool"
        }
      ],
      "payable": false,
      "stateMutability": "view",
      "type": "function"
    },
    {
      "constant": false,
      "inputs": [
        {
          "name": "_rate",
          "type": "uint256"
        }
      ],
      "name": "setRate",
      "outputs": [],
      "payable": false,
      "stateMutability": "nonpayable",
      "type": "function"
    }
  ],
  "bytecode": "0x60806040526000600c60146101000a81548160ff0219169083151502179055503480156200002c57600080fd5b5060405160e08062002cb783398101806040528101908080519060200190929190805190602001909291908051906020019092919080519060200190929190805190602001909291908051906020019092919080519060200190929190505050336000806101000a81548173ffffffffffffffffffffffffffffffffffffffff021916908373ffffffffffffffffffffffffffffffffffffffff160217905550600087111515620000dc57600080fd5b600073ffffffffffffffffffffffffffffffffffffffff168673ffffffffffffffffffffffffffffffffffffffff16141515156200011957600080fd5b600073ffffffffffffffffffffffffffffffffffffffff168573ffffffffffffffffffffffffffffffffffffffff16141515156200015657600080fd5b600073ffffffffffffffffffffffffffffffffffffffff168273ffffffffffffffffffffffffffffffffffffffff16141515156200019357600080fd5b428410151515620001a357600080fd5b838310151515620001b357600080fd5b600081111515620001c357600080fd5b600260009054906101000a900473ffffffffffffffffffffffffffffffffffffffff16620001f06200043a565b808273ffffffffffffffffffffffffffffffffffffffff1673ffffffffffffffffffffffffffffffffffffffff168152602001915050604051809103906000f08015801562000243573d6000803e3d6000fd5b50600c60006101000a81548173ffffffffffffffffffffffffffffffffffffffff021916908373ffffffffffffffffffffffffffffffffffffffff16021790555080600b819055508660038190555085600260006101000a81548173ffffffffffffffffffffffffffffffffffffffff021916908373ffffffffffffffffffffffffffffffffffffffff16021790555084600160006101000a81548173ffffffffffffffffffffffffffffffffffffffff021916908373ffffffffffffffffffffffffffffffffffffffff16021790555081600560006101000a81548173ffffffffffffffffffffffffffffffffffffffff021916908373ffffffffffffffffffffffffffffffffffffffff1602179055508360078190555082600881905550600160009054906101000a900473ffffffffffffffffffffffffffffffffffffffff1673ffffffffffffffffffffffffffffffffffffffff166318160ddd6040518163ffffffff167c0100000000000000000000000000000000000000000000000000000000028152600401602060405180830381600087803b158015620003ea57600080fd5b505af1158015620003ff573d6000803e3d6000fd5b505050506040513d60208110156200041657600080fd5b8101908080519060200190929190505050600981905550505050505050506200044b565b604051610beb80620020cc83390190565b611c71806200045b6000396000f300608060405260043610610149576000357c0100000000000000000000000000000000000000000000000000000000900463ffffffff1680631515bc2b146101545780632c4e722e1461018357806334fcf437146101ae57806340193883146101db5780634042b66f14610206578063420a83e7146102315780634b6753bc146102885780634bb278f3146102b3578063521eb273146102ca578063715018a6146103215780637d3d6522146103385780638ab1d681146103675780638c10671c146103aa5780638d4e4083146103e55780638da5cb5b146104145780639b19251a1461046b578063b4ef088f146104c6578063b5545a3c146104f1578063b7a8807c14610508578063bf58390314610533578063e43252d71461055e578063ec8ac4d8146105a1578063f2fde38b146105d7578063fbfa77cf1461061a578063fc0c546a14610671575b610152336106c8565b005b34801561016057600080fd5b5061016961080d565b604051808215151515815260200191505060405180910390f35b34801561018f57600080fd5b50610198610819565b6040518082815260200191505060405180910390f35b3480156101ba57600080fd5b506101d96004803603810190808035906020019092919050505061081f565b005b3480156101e757600080fd5b506101f0610884565b6040518082815260200191505060405180910390f35b34801561021257600080fd5b5061021b61088a565b6040518082815260200191505060405180910390f35b34801561023d57600080fd5b50610246610890565b604051808273ffffffffffffffffffffffffffffffffffffffff1673ffffffffffffffffffffffffffffffffffffffff16815260200191505060405180910390f35b34801561029457600080fd5b5061029d6108b6565b6040518082815260200191505060405180910390f35b3480156102bf57600080fd5b506102c86108bc565b005b3480156102d657600080fd5b506102df610997565b604051808273ffffffffffffffffffffffffffffffffffffffff1673ffffffffffffffffffffffffffffffffffffffff16815260200191505060405180910390f35b34801561032d57600080fd5b506103366109bd565b005b34801561034457600080fd5b5061034d610abf565b604051808215151515815260200191505060405180910390f35b34801561037357600080fd5b506103a8600480360381019080803573ffffffffffffffffffffffffffffffffffffffff169060200190929190505050610ace565b005b3480156103b657600080fd5b506103e3600480360381019080803590602001908201803590602001919091929391929390505050610b84565b005b3480156103f157600080fd5b506103fa610c85565b604051808215151515815260200191505060405180910390f35b34801561042057600080fd5b50610429610c98565b604051808273ffffffffffffffffffffffffffffffffffffffff1673ffffffffffffffffffffffffffffffffffffffff16815260200191505060405180910390f35b34801561047757600080fd5b506104ac600480360381019080803573ffffffffffffffffffffffffffffffffffffffff169060200190929190505050610cbd565b604051808215151515815260200191505060405180910390f35b3480156104d257600080fd5b506104db610cdd565b6040518082815260200191505060405180910390f35b3480156104fd57600080fd5b50610506610ce3565b005b34801561051457600080fd5b5061051d610de9565b6040518082815260200191505060405180910390f35b34801561053f57600080fd5b50610548610def565b6040518082815260200191505060405180910390f35b34801561056a57600080fd5b5061059f600480360381019080803573ffffffffffffffffffffffffffffffffffffffff169060200190929190505050610df5565b005b6105d5600480360381019080803573ffffffffffffffffffffffffffffffffffffffff1690602001909291905050506106c8565b005b3480156105e357600080fd5b50610618600480360381019080803573ffffffffffffffffffffffffffffffffffffffff169060200190929190505050610eab565b005b34801561062657600080fd5b5061062f610f12565b604051808273ffffffffffffffffffffffffffffffffffffffff1673ffffffffffffffffffffffffffffffffffffffff16815260200191505060405180910390f35b34801561067d57600080fd5b50610686610f38565b604051808273ffffffffffffffffffffffffffffffffffffffff1673ffffffffffffffffffffffffffffffffffffffff16815260200191505060405180910390f35b600080600034925060009150600090506106e28484610f5e565b6106eb83610fae565b80935081925050506000821115610759573373ffffffffffffffffffffffffffffffffffffffff166108fc839081150290604051600060405180830381858888f19350505050158015610742573d6000803e3d6000fd5b5061075682846116b590919063ffffffff16565b92505b61076e836004546116ce90919063ffffffff16565b60048190555061077e84826116ea565b8373ffffffffffffffffffffffffffffffffffffffff163373ffffffffffffffffffffffffffffffffffffffff167f623b3804fa71d67900d064613da8f94b9617215ee90799290593e1745087ad188584604051808381526020018281526020019250505060405180910390a36107f58484611771565b6107fd611775565b610807848461184d565b50505050565b60006008544211905090565b60035481565b6000809054906101000a900473ffffffffffffffffffffffffffffffffffffffff1673ffffffffffffffffffffffffffffffffffffffff163373ffffffffffffffffffffffffffffffffffffffff1614151561087a57600080fd5b8060038190555050565b600b5481565b60045481565b600560009054906101000a900473ffffffffffffffffffffffffffffffffffffffff1681565b60085481565b6000809054906101000a900473ffffffffffffffffffffffffffffffffffffffff1673ffffffffffffffffffffffffffffffffffffffff163373ffffffffffffffffffffffffffffffffffffffff1614151561091757600080fd5b600c60149054906101000a900460ff1615151561093357600080fd5b61093b61080d565b151561094657600080fd5b61094e611851565b7f6823b073d48d6e3a7d385eeb601452d680e74bb46afe3255a7d778f3a9b1768160405160405180910390a16001600c60146101000a81548160ff021916908315150217905550565b600260009054906101000a900473ffffffffffffffffffffffffffffffffffffffff1681565b6000809054906101000a900473ffffffffffffffffffffffffffffffffffffffff1673ffffffffffffffffffffffffffffffffffffffff163373ffffffffffffffffffffffffffffffffffffffff16141515610a1857600080fd5b6000809054906101000a900473ffffffffffffffffffffffffffffffffffffffff1673ffffffffffffffffffffffffffffffffffffffff167ff8df31144d9c2f0f6b59d69b8b98abd5459d07f2742c4df920b25aae33c6482060405160405180910390a260008060006101000a81548173ffffffffffffffffffffffffffffffffffffffff021916908373ffffffffffffffffffffffffffffffffffffffff160217905550565b6000600b546004541015905090565b6000809054906101000a900473ffffffffffffffffffffffffffffffffffffffff1673ffffffffffffffffffffffffffffffffffffffff163373ffffffffffffffffffffffffffffffffffffffff16141515610b2957600080fd5b6000600660008373ffffffffffffffffffffffffffffffffffffffff1673ffffffffffffffffffffffffffffffffffffffff16815260200190815260200160002060006101000a81548160ff02191690831515021790555050565b60008060009054906101000a900473ffffffffffffffffffffffffffffffffffffffff1673ffffffffffffffffffffffffffffffffffffffff163373ffffffffffffffffffffffffffffffffffffffff16141515610be157600080fd5b600090505b82829050811015610c80576001600660008585858181101515610c0557fe5b9050602002013573ffffffffffffffffffffffffffffffffffffffff1673ffffffffffffffffffffffffffffffffffffffff1673ffffffffffffffffffffffffffffffffffffffff16815260200190815260200160002060006101000a81548160ff0219169083151502179055508080600101915050610be6565b505050565b600c60149054906101000a900460ff1681565b6000809054906101000a900473ffffffffffffffffffffffffffffffffffffffff1681565b60066020528060005260406000206000915054906101000a900460ff1681565b600a5481565b600c60149054906101000a900460ff161515610cfe57600080fd5b610d06610abf565b151515610d1257600080fd5b600c60009054906101000a900473ffffffffffffffffffffffffffffffffffffffff1673ffffffffffffffffffffffffffffffffffffffff1663fa89401a336040518263ffffffff167c0100000000000000000000000000000000000000000000000000000000028152600401808273ffffffffffffffffffffffffffffffffffffffff1673ffffffffffffffffffffffffffffffffffffffff168152602001915050600060405180830381600087803b158015610dcf57600080fd5b505af1158015610de3573d6000803e3d6000fd5b50505050565b60075481565b60095481565b6000809054906101000a900473ffffffffffffffffffffffffffffffffffffffff1673ffffffffffffffffffffffffffffffffffffffff163373ffffffffffffffffffffffffffffffffffffffff16141515610e5057600080fd5b6001600660008373ffffffffffffffffffffffffffffffffffffffff1673ffffffffffffffffffffffffffffffffffffffff16815260200190815260200160002060006101000a81548160ff02191690831515021790555050565b6000809054906101000a900473ffffffffffffffffffffffffffffffffffffffff1673ffffffffffffffffffffffffffffffffffffffff163373ffffffffffffffffffffffffffffffffffffffff16141515610f0657600080fd5b610f0f816119a2565b50565b600c60009054906101000a900473ffffffffffffffffffffffffffffffffffffffff1681565b600160009054906101000a900473ffffffffffffffffffffffffffffffffffffffff1681565b600073ffffffffffffffffffffffffffffffffffffffff168273ffffffffffffffffffffffffffffffffffffffff1614151515610f9a57600080fd5b60008114151515610faa57600080fd5b5050565b600080600080600080600093506000925086915060035490506af8277896582678ac00000060095411156110bf57610ff0600a82611a9c90919063ffffffff16565b9050611006600d82611ad490919063ffffffff16565b905061101b8183611ad490919063ffffffff16565b925061103d6af8277896582678ac0000006009546116b590919063ffffffff16565b8311156110be576110646af8277896582678ac0000006009546116b590919063ffffffff16565b925061108b61107c8285611a9c90919063ffffffff16565b836116b590919063ffffffff16565b91506110a083856116ce90919063ffffffff16565b93506110b7846009546116b590919063ffffffff16565b6009819055505b5b6af8277896582678ac0000006009541080156110e857506acecb8f27f4200f3a00000060095410155b80156110f45750600082115b156111dc5761110d606482611a9c90919063ffffffff16565b9050611123607d82611ad490919063ffffffff16565b90506111388183611ad490919063ffffffff16565b925061115a6acecb8f27f4200f3a0000006009546116b590919063ffffffff16565b8311156111db576111816acecb8f27f4200f3a0000006009546116b590919063ffffffff16565b92506111a86111998285611a9c90919063ffffffff16565b836116b590919063ffffffff16565b91506111bd83856116ce90919063ffffffff16565b93506111d4846009546116b590919063ffffffff16565b6009819055505b5b6acecb8f27f4200f3a00000060095410801561120557506aa56fa5b99019a5c800000060095410155b80156112115750600082115b156112f95761122a606482611a9c90919063ffffffff16565b9050611240607882611ad490919063ffffffff16565b90506112558183611ad490919063ffffffff16565b92506112776aa56fa5b99019a5c80000006009546116b590919063ffffffff16565b8311156112f85761129e6aa56fa5b99019a5c80000006009546116b590919063ffffffff16565b92506112c56112b68285611a9c90919063ffffffff16565b836116b590919063ffffffff16565b91506112da83856116ce90919063ffffffff16565b93506112f1846009546116b590919063ffffffff16565b6009819055505b5b6aa56fa5b99019a5c800000060095410801561132257506a7c13bc4b2c133c5600000060095410155b801561132e5750600082115b1561141657611347606482611a9c90919063ffffffff16565b905061135d607382611ad490919063ffffffff16565b90506113728183611ad490919063ffffffff16565b92506113946a7c13bc4b2c133c560000006009546116b590919063ffffffff16565b831115611415576113bb6a7c13bc4b2c133c560000006009546116b590919063ffffffff16565b92506113e26113d38285611a9c90919063ffffffff16565b836116b590919063ffffffff16565b91506113f783856116ce90919063ffffffff16565b935061140e846009546116b590919063ffffffff16565b6009819055505b5b6a7c13bc4b2c133c5600000060095410801561143f57506a52b7d2dcc80cd2e400000060095410155b801561144b5750600082115b1561153357611464606482611a9c90919063ffffffff16565b905061147a606e82611ad490919063ffffffff16565b905061148f8183611ad490919063ffffffff16565b92506114b16a52b7d2dcc80cd2e40000006009546116b590919063ffffffff16565b831115611532576114d86a52b7d2dcc80cd2e40000006009546116b590919063ffffffff16565b92506114ff6114f08285611a9c90919063ffffffff16565b836116b590919063ffffffff16565b915061151483856116ce90919063ffffffff16565b935061152b846009546116b590919063ffffffff16565b6009819055505b5b6a52b7d2dcc80cd2e400000060095410801561155c57506a295be96e6406697200000060095410155b1561164457611575606482611a9c90919063ffffffff16565b905061158b606982611ad490919063ffffffff16565b90506115a08183611ad490919063ffffffff16565b92506115c26a295be96e640669720000006009546116b590919063ffffffff16565b831115611643576115e96a295be96e640669720000006009546116b590919063ffffffff16565b92506116106116018285611a9c90919063ffffffff16565b836116b590919063ffffffff16565b915061162583856116ce90919063ffffffff16565b935061163c846009546116b590919063ffffffff16565b6009819055505b5b6a295be96e6406697200000060095410156116a65761166c8183611ad490919063ffffffff16565b92506009548311156116a55760095493506116a26116938286611a9c90919063ffffffff16565b836116b590919063ffffffff16565b91505b5b83829550955050505050915091565b60008282111515156116c357fe5b818303905092915050565b600081830190508281101515156116e157fe5b80905092915050565b81600660008273ffffffffffffffffffffffffffffffffffffffff1673ffffffffffffffffffffffffffffffffffffffff16815260200190815260200160002060009054906101000a900460ff16151561174357600080fd5b600754421015801561175757506008544211155b151561176257600080fd5b61176c8383611aea565b505050565b5050565b600c60009054906101000a900473ffffffffffffffffffffffffffffffffffffffff1673ffffffffffffffffffffffffffffffffffffffff1663f340fa0134336040518363ffffffff167c0100000000000000000000000000000000000000000000000000000000028152600401808273ffffffffffffffffffffffffffffffffffffffff1673ffffffffffffffffffffffffffffffffffffffff1681526020019150506000604051808303818588803b15801561183257600080fd5b505af1158015611846573d6000803e3d6000fd5b5050505050565b5050565b611859610abf565b1561190157600c60009054906101000a900473ffffffffffffffffffffffffffffffffffffffff1673ffffffffffffffffffffffffffffffffffffffff166343d726d66040518163ffffffff167c0100000000000000000000000000000000000000000000000000000000028152600401600060405180830381600087803b1580156118e457600080fd5b505af11580156118f8573d6000803e3d6000fd5b505050506119a0565b600c60009054906101000a900473ffffffffffffffffffffffffffffffffffffffff1673ffffffffffffffffffffffffffffffffffffffff16638c52dc416040518163ffffffff167c0100000000000000000000000000000000000000000000000000000000028152600401600060405180830381600087803b15801561198757600080fd5b505af115801561199b573d6000803e3d6000fd5b505050505b565b600073ffffffffffffffffffffffffffffffffffffffff168173ffffffffffffffffffffffffffffffffffffffff16141515156119de57600080fd5b8073ffffffffffffffffffffffffffffffffffffffff166000809054906101000a900473ffffffffffffffffffffffffffffffffffffffff1673ffffffffffffffffffffffffffffffffffffffff167f8be0079c531659141344cd1fd0a4f28419497f9722a3daafe3b4186f6b6457e060405160405180910390a3806000806101000a81548173ffffffffffffffffffffffffffffffffffffffff021916908373ffffffffffffffffffffffffffffffffffffffff16021790555050565b600080831415611aaf5760009050611ace565b8183029050818382811515611ac057fe5b04141515611aca57fe5b8090505b92915050565b60008183811515611ae157fe5b04905092915050565b600160009054906101000a900473ffffffffffffffffffffffffffffffffffffffff1673ffffffffffffffffffffffffffffffffffffffff166323b872dd600560009054906101000a900473ffffffffffffffffffffffffffffffffffffffff1684846040518463ffffffff167c0100000000000000000000000000000000000000000000000000000000028152600401808473ffffffffffffffffffffffffffffffffffffffff1673ffffffffffffffffffffffffffffffffffffffff1681526020018373ffffffffffffffffffffffffffffffffffffffff1673ffffffffffffffffffffffffffffffffffffffff1681526020018281526020019350505050602060405180830381600087803b158015611c0557600080fd5b505af1158015611c19573d6000803e3d6000fd5b505050506040513d6020811015611c2f57600080fd5b81019080805190602001909291905050505050505600a165627a7a72305820f0a4d36e82517b1e76a589b88a495c30da9c26190a6a24927c3b33e4421216280029608060405234801561001057600080fd5b50604051602080610beb83398101806040528101908080519060200190929190505050336000806101000a81548173ffffffffffffffffffffffffffffffffffffffff021916908373ffffffffffffffffffffffffffffffffffffffff160217905550600073ffffffffffffffffffffffffffffffffffffffff168173ffffffffffffffffffffffffffffffffffffffff16141515156100af57600080fd5b80600260006101000a81548173ffffffffffffffffffffffffffffffffffffffff021916908373ffffffffffffffffffffffffffffffffffffffff1602179055506000600260146101000a81548160ff0219169083600281111561010f57fe5b021790555050610ac7806101246000396000f3006080604052600436106100a4576000357c0100000000000000000000000000000000000000000000000000000000900463ffffffff16806343d726d6146100a9578063521eb273146100c0578063715018a6146101175780638c52dc411461012e5780638da5cb5b14610145578063c19d93fb1461019c578063cb13cddb146101d5578063f2fde38b1461022c578063f340fa011461026f578063fa89401a146102a5575b600080fd5b3480156100b557600080fd5b506100be6102e8565b005b3480156100cc57600080fd5b506100d5610448565b604051808273ffffffffffffffffffffffffffffffffffffffff1673ffffffffffffffffffffffffffffffffffffffff16815260200191505060405180910390f35b34801561012357600080fd5b5061012c61046e565b005b34801561013a57600080fd5b50610143610570565b005b34801561015157600080fd5b5061015a610651565b604051808273ffffffffffffffffffffffffffffffffffffffff1673ffffffffffffffffffffffffffffffffffffffff16815260200191505060405180910390f35b3480156101a857600080fd5b506101b1610676565b604051808260028111156101c157fe5b60ff16815260200191505060405180910390f35b3480156101e157600080fd5b50610216600480360381019080803573ffffffffffffffffffffffffffffffffffffffff169060200190929190505050610689565b6040518082815260200191505060405180910390f35b34801561023857600080fd5b5061026d600480360381019080803573ffffffffffffffffffffffffffffffffffffffff1690602001909291905050506106a1565b005b6102a3600480360381019080803573ffffffffffffffffffffffffffffffffffffffff169060200190929190505050610708565b005b3480156102b157600080fd5b506102e6600480360381019080803573ffffffffffffffffffffffffffffffffffffffff16906020019092919050505061082f565b005b6000809054906101000a900473ffffffffffffffffffffffffffffffffffffffff1673ffffffffffffffffffffffffffffffffffffffff163373ffffffffffffffffffffffffffffffffffffffff1614151561034357600080fd5b6000600281111561035057fe5b600260149054906101000a900460ff16600281111561036b57fe5b14151561037757600080fd5b60028060146101000a81548160ff0219169083600281111561039557fe5b02179055507f1cdde67b72a90f19919ac732a437ac2f7a10fc128d28c2a6e525d89ce5cd9d3a60405160405180910390a1600260009054906101000a900473ffffffffffffffffffffffffffffffffffffffff1673ffffffffffffffffffffffffffffffffffffffff166108fc3073ffffffffffffffffffffffffffffffffffffffff16319081150290604051600060405180830381858888f19350505050158015610445573d6000803e3d6000fd5b50565b600260009054906101000a900473ffffffffffffffffffffffffffffffffffffffff1681565b6000809054906101000a900473ffffffffffffffffffffffffffffffffffffffff1673ffffffffffffffffffffffffffffffffffffffff163373ffffffffffffffffffffffffffffffffffffffff161415156104c957600080fd5b6000809054906101000a900473ffffffffffffffffffffffffffffffffffffffff1673ffffffffffffffffffffffffffffffffffffffff167ff8df31144d9c2f0f6b59d69b8b98abd5459d07f2742c4df920b25aae33c6482060405160405180910390a260008060006101000a81548173ffffffffffffffffffffffffffffffffffffffff021916908373ffffffffffffffffffffffffffffffffffffffff160217905550565b6000809054906101000a900473ffffffffffffffffffffffffffffffffffffffff1673ffffffffffffffffffffffffffffffffffffffff163373ffffffffffffffffffffffffffffffffffffffff161415156105cb57600080fd5b600060028111156105d857fe5b600260149054906101000a900460ff1660028111156105f357fe5b1415156105ff57600080fd5b6001600260146101000a81548160ff0219169083600281111561061e57fe5b02179055507f599d8e5a83cffb867d051598c4d70e805d59802d8081c1c7d6dffc5b6aca2b8960405160405180910390a1565b6000809054906101000a900473ffffffffffffffffffffffffffffffffffffffff1681565b600260149054906101000a900460ff1681565b60016020528060005260406000206000915090505481565b6000809054906101000a900473ffffffffffffffffffffffffffffffffffffffff1673ffffffffffffffffffffffffffffffffffffffff163373ffffffffffffffffffffffffffffffffffffffff161415156106fc57600080fd5b61070581610985565b50565b6000809054906101000a900473ffffffffffffffffffffffffffffffffffffffff1673ffffffffffffffffffffffffffffffffffffffff163373ffffffffffffffffffffffffffffffffffffffff1614151561076357600080fd5b6000600281111561077057fe5b600260149054906101000a900460ff16600281111561078b57fe5b14151561079757600080fd5b6107e934600160008473ffffffffffffffffffffffffffffffffffffffff1673ffffffffffffffffffffffffffffffffffffffff16815260200190815260200160002054610a7f90919063ffffffff16565b600160008373ffffffffffffffffffffffffffffffffffffffff1673ffffffffffffffffffffffffffffffffffffffff1681526020019081526020016000208190555050565b60006001600281111561083e57fe5b600260149054906101000a900460ff16600281111561085957fe5b14151561086557600080fd5b600160008373ffffffffffffffffffffffffffffffffffffffff1673ffffffffffffffffffffffffffffffffffffffff1681526020019081526020016000205490506000600160008473ffffffffffffffffffffffffffffffffffffffff1673ffffffffffffffffffffffffffffffffffffffff168152602001908152602001600020819055508173ffffffffffffffffffffffffffffffffffffffff166108fc829081150290604051600060405180830381858888f19350505050158015610932573d6000803e3d6000fd5b508173ffffffffffffffffffffffffffffffffffffffff167fd7dee2702d63ad89917b6a4da9981c90c4d24f8c2bdfd64c604ecae57d8d0651826040518082815260200191505060405180910390a25050565b600073ffffffffffffffffffffffffffffffffffffffff168173ffffffffffffffffffffffffffffffffffffffff16141515156109c157600080fd5b8073ffffffffffffffffffffffffffffffffffffffff166000809054906101000a900473ffffffffffffffffffffffffffffffffffffffff1673ffffffffffffffffffffffffffffffffffffffff167f8be0079c531659141344cd1fd0a4f28419497f9722a3daafe3b4186f6b6457e060405160405180910390a3806000806101000a81548173ffffffffffffffffffffffffffffffffffffffff021916908373ffffffffffffffffffffffffffffffffffffffff16021790555050565b60008183019050828110151515610a9257fe5b809050929150505600a165627a7a723058200dda002c3d24dd5b48ae2e5f8becd8c92d0aa383f4ec2610073ecaa0aaa5a0120029",
  "source": "pragma solidity ^0.4.23;\r\n\r\nimport \"./BitAcademyToken.sol\";\r\nimport \"./RefundVault.sol\";\r\n\r\n/**\r\n * @title Crowdsale\r\n * @dev Crowdsale is a base contract for managing a token crowdsale,\r\n * allowing investors to purchase tokens with ether. This contract implements\r\n * such functionality in its most fundamental form and can be extended to provide additional\r\n * functionality and/or custom behavior.\r\n * The external interface represents the basic interface for purchasing tokens, and conform\r\n * the base architecture for crowdsales. They are *not* intended to be modified / overriden.\r\n * The internal interface conforms the extensible and modifiable surface of crowdsales. Override\r\n * the methods to add functionality. Consider using 'super' where appropiate to concatenate\r\n * behavior.\r\n */\r\ncontract Crowdsale is Ownable{\r\n  using SafeMath for uint256;\r\n\r\n  // The token being sold\r\n  BitAcademyToken public token;\r\n\r\n  // Address where funds are collected\r\n  address public wallet;\r\n\r\n  // No of wei needed for each token\r\n  uint256 public rate;\r\n\r\n  // Amount of wei raised\r\n  uint256 public weiRaised;\r\n\r\n  // Save Token Holder addresses\r\n  address public tokenHolder;\r\n\r\n  mapping(address => bool) public whitelist;\r\n\r\n  uint256 public openingTime;\r\n  uint256 public closingTime;\r\n\r\n  // Remaining tokens which are yet to be sold\r\n  uint256 public remainingTokens;\r\n\r\n  // Tokens sold excluding bonus\r\n  uint256 public tokenSoldExcludeBonus;\r\n\r\n  // minimum amount of funds to be raised in weis\r\n  uint256 public goal;\r\n\r\n  // refund vault used to hold funds while crowdsale is running\r\n  RefundVault public vault;\r\n\r\n  /**\r\n   * @dev Reverts if beneficiary is not whitelisted. Can be used when extending this contract.\r\n   */\r\n  modifier isWhitelisted(address _beneficiary) {\r\n    require(whitelist[_beneficiary]);\r\n    _;\r\n  }\r\n\r\n  /**\r\n   * @dev Reverts if not in crowdsale time range.\r\n   */\r\n  modifier onlyWhileOpen {\r\n    // solium-disable-next-line security/no-block-members\r\n    require(block.timestamp >= openingTime && block.timestamp <= closingTime);\r\n    _;\r\n  }\r\n\r\n  bool public isFinalized = false;\r\n\r\n  event Finalized();\r\n\r\n  /**\r\n   * @dev Must be called after crowdsale ends, to do some extra finalization\r\n   * work. Calls the contract's finalization function.\r\n   */\r\n  function finalize() onlyOwner public {\r\n    require(!isFinalized);\r\n    require(hasClosed());\r\n\r\n    finalization();\r\n    emit Finalized();\r\n\r\n    isFinalized = true;\r\n  }\r\n\r\n  /**\r\n   * @dev Investors can claim refunds here if crowdsale is unsuccessful\r\n   */\r\n  function claimRefund() public {\r\n    require(isFinalized);\r\n    require(!goalReached());\r\n\r\n    vault.refund(msg.sender);\r\n  }\r\n\r\n  /**\r\n   * @dev Checks whether funding goal was reached.\r\n   * @return Whether funding goal was reached\r\n   */\r\n  function goalReached() public view returns (bool) {\r\n    return weiRaised >= goal;\r\n  }\r\n\r\n  /**\r\n   * @dev vault finalization task, called when owner calls finalize()\r\n   */\r\n  function finalization() internal {\r\n    if (goalReached()) {\r\n      vault.close();\r\n    } else {\r\n      vault.enableRefunds();\r\n    }\r\n  }\r\n\r\n  /**\r\n   * Event for token purchase logging\r\n   * @param purchaser who paid for the tokens\r\n   * @param beneficiary who got the tokens\r\n   * @param value weis paid for purchase\r\n   * @param amount amount of tokens purchased\r\n   */\r\n  event TokenPurchase(\r\n    address indexed purchaser,\r\n    address indexed beneficiary,\r\n    uint256 value,\r\n    uint256 amount\r\n  );\r\n\r\n  /**\r\n   * @param _rate No of tokens per ether\r\n   * @param _wallet Address where collected funds will be forwarded to\r\n   * @param _token Address of the token being sold\r\n   */\r\n  constructor(uint256 _rate, address _wallet, BitAcademyToken _token, uint256 _openingTime, uint256 _closingTime,address _tokenHolder,uint256 _goal) public {\r\n    require(_rate > 0);\r\n    require(_wallet != address(0));\r\n    require(_token != address(0));\r\n    require(_tokenHolder!= address(0));\r\n    require(_openingTime >= block.timestamp);\r\n    require(_closingTime >= _openingTime);\r\n    require(_goal > 0);\r\n\r\n    vault = new RefundVault(wallet);\r\n    goal = _goal;\r\n    rate = _rate;\r\n    wallet = _wallet;\r\n    token = _token;\r\n    tokenHolder = _tokenHolder;\r\n    openingTime = _openingTime;\r\n    closingTime = _closingTime;\r\n    remainingTokens = token.totalSupply();\r\n  }\r\n\r\n  // -----------------------------------------\r\n  // Crowdsale external interface\r\n  // -----------------------------------------\r\n\r\n  /**\r\n   * @dev fallback function ***DO NOT OVERRIDE***\r\n   */\r\n  function () external payable {\r\n    buyTokens(msg.sender);\r\n  }\r\n  /**\r\n   * @dev low level token purchase ***DO NOT OVERRIDE***\r\n   * @param _beneficiary Address performing the token purchase\r\n   */\r\n  function buyTokens(address _beneficiary) public payable {\r\n\r\n    uint256 weiAmount = msg.value;\r\n    uint256 refundWeiAmt = 0;\r\n    uint256 tokens = 0;\r\n    _preValidatePurchase(_beneficiary, weiAmount);\r\n\r\n    // calculate token amount to be delivered\r\n     (tokens, refundWeiAmt) = _getTokenAmount(weiAmount);\r\n\r\n    /* If the remaining tokens are less than tokens calculated above\r\n     * proceed with purchase of remaining tokens and refund the remaining ethers\r\n     * to the caller\r\n     */\r\n    if(refundWeiAmt > 0) {\r\n      msg.sender.transfer(refundWeiAmt);\r\n      weiAmount = weiAmount.sub(refundWeiAmt);\r\n    }\r\n\r\n    // update state\r\n    weiRaised = weiRaised.add(weiAmount);\r\n\r\n    _processPurchase(_beneficiary, tokens);\r\n    emit TokenPurchase(\r\n      msg.sender,\r\n      _beneficiary,\r\n      weiAmount,\r\n      tokens\r\n    );\r\n\r\n    _updatePurchasingState(_beneficiary, weiAmount);\r\n    _forwardFunds();\r\n    _postValidatePurchase(_beneficiary, weiAmount);\r\n  }\r\n\r\n  /**\r\n   * @dev Adds single address to whitelist.\r\n   * @param _beneficiary Address to be added to the whitelist\r\n   */\r\n  function addToWhitelist(address _beneficiary) external onlyOwner {\r\n    whitelist[_beneficiary] = true;\r\n  }\r\n\r\n  /**\r\n   * @dev Adds list of addresses to whitelist. Not overloaded due to limitations with truffle testing.\r\n   * @param _beneficiaries Addresses to be added to the whitelist\r\n   */\r\n  function addManyToWhitelist(address[] _beneficiaries) external onlyOwner {\r\n    for (uint256 i = 0; i < _beneficiaries.length; i++) {\r\n      whitelist[_beneficiaries[i]] = true;\r\n    }\r\n  }\r\n\r\n  /**\r\n   * @dev Removes single address from whitelist.\r\n   * @param _beneficiary Address to be removed to the whitelist\r\n   */\r\n  function removeFromWhitelist(address _beneficiary) external onlyOwner {\r\n    whitelist[_beneficiary] = false;\r\n  }\r\n\r\n  /**\r\n   * @dev Checks whether the period in which the crowdsale is open has already elapsed.\r\n   * @return Whether crowdsale period has elapsed\r\n   */\r\n  function hasClosed() public view returns (bool) {\r\n    // solium-disable-next-line security/no-block-members\r\n    return block.timestamp > closingTime;\r\n  }\r\n\r\n  // -----------------------------------------\r\n  // Internal interface (extensible)\r\n  // -----------------------------------------\r\n\r\n  /**\r\n   * @dev Validation of an incoming purchase. Use require statements to revert state when conditions are not met. Use super to concatenate validations.\r\n   * @param _beneficiary Address performing the token purchase\r\n   * @param _weiAmount Value in wei involved in the purchase\r\n   */\r\n  function _preValidatePurchase(\r\n    address _beneficiary,\r\n    uint256 _weiAmount\r\n  )\r\n    internal\r\n  {\r\n    require(_beneficiary != address(0));\r\n    require(_weiAmount != 0);\r\n  }\r\n\r\n  /**\r\n   * @dev Validation of an executed purchase. Observe state and use revert statements to undo rollback when valid conditions are not met.\r\n   * @param _beneficiary Address performing the token purchase\r\n   * @param _weiAmount Value in wei involved in the purchase\r\n   */\r\n  function _postValidatePurchase(\r\n    address _beneficiary,\r\n    uint256 _weiAmount\r\n  )\r\n    internal\r\n  {\r\n    // optional override\r\n  }\r\n\r\n  /**\r\n   * @dev Source of tokens. Override this method to modify the way in which the crowdsale ultimately gets and sends its tokens.\r\n   * @param _beneficiary Address performing the token purchase\r\n   * @param _tokenAmount Number of tokens to be emitted\r\n   */\r\n  function _deliverTokens(\r\n    address _beneficiary,\r\n    uint256 _tokenAmount\r\n  )\r\n    internal\r\n  {\r\n    token.transferFrom(tokenHolder,_beneficiary, _tokenAmount);\r\n  }\r\n\r\n  /**\r\n   * @dev Executed when a purchase has been validated and is ready to be executed. Not necessarily emits/sends tokens.\r\n   * @param _beneficiary Address receiving the tokens\r\n   * @param _tokenAmount Number of tokens to be purchased\r\n   */\r\n  function _processPurchase(\r\n    address _beneficiary,\r\n    uint256 _tokenAmount\r\n  )\r\n    internal\r\n    isWhitelisted(_beneficiary)\r\n    onlyWhileOpen\r\n  {\r\n    _deliverTokens(_beneficiary, _tokenAmount);\r\n  }\r\n\r\n  /**\r\n   * @dev Override for extensions that require an internal state to check for validity (current user contributions, etc.)\r\n   * @param _beneficiary Address receiving the tokens\r\n   * @param _weiAmount Value in wei involved in the purchase\r\n   */\r\n  function _updatePurchasingState(\r\n    address _beneficiary,\r\n    uint256 _weiAmount\r\n  )\r\n    internal\r\n  {\r\n    // optional override\r\n  }\r\n\r\n  /**\r\n   * @dev Override to extend the way in which ether is converted to tokens.\r\n   * @param _weiAmount Value in wei to be converted into tokens\r\n   * @return Token price in weis\r\n   */\r\n  function _getTokenAmount(uint256 _weiAmount)\r\n    internal view returns (uint256, uint256)\r\n  {\r\n    //remainingTokens = remainingTokens.sub(_tokenAmount);\r\n    uint256 noOfTokens = 0;\r\n    uint256 tokensInCondition = 0;\r\n    uint256 weiAmount  = _weiAmount;\r\n    uint256 currentRate = rate;\r\n\r\n    if(remainingTokens > 300000000*(10**18)) {\r\n      currentRate = currentRate.mul(10);\r\n      currentRate = currentRate.div(13);\r\n      tokensInCondition = weiAmount.div(currentRate);\r\n      if(tokensInCondition > remainingTokens.sub(300000000*(10**18))){\r\n        tokensInCondition = remainingTokens.sub(300000000*(10**18));\r\n        weiAmount = weiAmount.sub(tokensInCondition.mul(currentRate));\r\n        noOfTokens = noOfTokens.add(tokensInCondition);\r\n        remainingTokens = remainingTokens.sub(noOfTokens);\r\n      }\r\n    }\r\n\r\n    if (remainingTokens < 300000000*(10**18) && remainingTokens >= 250000000*(10**18) && weiAmount > 0){\r\n\r\n      currentRate = currentRate.mul(100);\r\n      currentRate = currentRate.div(125);\r\n      tokensInCondition = weiAmount.div(currentRate);\r\n      if(tokensInCondition > remainingTokens.sub(250000000*(10**18))){\r\n        tokensInCondition = remainingTokens.sub(250000000*(10**18));\r\n        weiAmount = weiAmount.sub(tokensInCondition.mul(currentRate));\r\n        noOfTokens = noOfTokens.add(tokensInCondition);\r\n        remainingTokens = remainingTokens.sub(noOfTokens);\r\n      }\r\n    }\r\n    if (remainingTokens < 250000000*(10**18) && remainingTokens >= 200000000*(10**18) && weiAmount > 0 ){\r\n      currentRate = currentRate.mul(100);\r\n      currentRate = currentRate.div(120);\r\n      tokensInCondition = weiAmount.div(currentRate);\r\n      if(tokensInCondition > remainingTokens.sub(200000000*(10**18))){\r\n        tokensInCondition = remainingTokens.sub(200000000*(10**18));\r\n        weiAmount = weiAmount.sub(tokensInCondition.mul(currentRate));\r\n        noOfTokens = noOfTokens.add(tokensInCondition);\r\n        remainingTokens = remainingTokens.sub(noOfTokens);\r\n      }\r\n    }\r\n    if (remainingTokens < 200000000*(10**18) && remainingTokens >= 150000000*(10**18) && weiAmount > 0 ){\r\n      currentRate = currentRate.mul(100);\r\n      currentRate = currentRate.div(115);\r\n      tokensInCondition = weiAmount.div(currentRate);\r\n      if(tokensInCondition > remainingTokens.sub(150000000*(10**18))){\r\n        tokensInCondition = remainingTokens.sub(150000000*(10**18));\r\n        weiAmount = weiAmount.sub(tokensInCondition.mul(currentRate));\r\n        noOfTokens = noOfTokens.add(tokensInCondition);\r\n        remainingTokens = remainingTokens.sub(noOfTokens);\r\n      }\r\n    }\r\n     if (remainingTokens < 150000000*(10**18) && remainingTokens >= 100000000*(10**18) && weiAmount > 0){\r\n\r\n      currentRate = currentRate.mul(100);\r\n      currentRate = currentRate.div(110);\r\n      tokensInCondition = weiAmount.div(currentRate);\r\n      if(tokensInCondition > remainingTokens.sub(100000000*(10**18))){\r\n        tokensInCondition = remainingTokens.sub(100000000*(10**18));\r\n        weiAmount = weiAmount.sub(tokensInCondition.mul(currentRate));\r\n        noOfTokens = noOfTokens.add(tokensInCondition);\r\n        remainingTokens = remainingTokens.sub(noOfTokens);\r\n      }\r\n    }\r\n\r\n    if (remainingTokens < 100000000*(10**18) && remainingTokens >= 50000000*(10**18) ){\r\n      currentRate = currentRate.mul(100);\r\n      currentRate = currentRate.div(105);\r\n      tokensInCondition = weiAmount.div(currentRate);\r\n      if(tokensInCondition > remainingTokens.sub(50000000*(10**18))){\r\n        tokensInCondition = remainingTokens.sub(50000000*(10**18));\r\n        weiAmount = weiAmount.sub(tokensInCondition.mul(currentRate));\r\n        noOfTokens = noOfTokens.add(tokensInCondition);\r\n        remainingTokens = remainingTokens.sub(noOfTokens);\r\n      }\r\n    }\r\n    if(remainingTokens < 50000000*(10**18)){\r\n      tokensInCondition = weiAmount.div(currentRate);\r\n      if(tokensInCondition > remainingTokens) {\r\n        noOfTokens = remainingTokens;\r\n        weiAmount = weiAmount.sub(noOfTokens.mul(currentRate));\r\n      }\r\n    }\r\n    return (noOfTokens, weiAmount);\r\n  }\r\n\r\n  /**\r\n   * @dev Determines how ETH is stored/forwarded on purchases.\r\n   */\r\n  function _forwardFunds() internal {\r\n    vault.deposit.value(msg.value)(msg.sender);\r\n  }\r\n\r\n  function setRate(uint256 _rate) public onlyOwner{\r\n    rate = _rate;\r\n  }\r\n}\r\n",
  "sourcePath": "/home/ubuntu/bitacademygold/contracts/Crowdsale.sol",
  "compiler": {
    "name": "solc",
    "version": "0.4.23+commit.124ca40d.Emscripten.clang"
  },
  "schemaVersion": "2.0.0",
  "updatedAt": "2018-06-20T07:35:45.160Z"
}